{
  "_format": "hh3-artifact-1",
  "contractName": "Voting",
  "sourceName": "contracts/Voting.sol",
  "abi": [
    {
      "anonymous": false,
      "inputs": [
        {
          "indexed": true,
          "internalType": "uint256",
          "name": "quizId",
          "type": "uint256"
        },
        {
          "indexed": true,
          "internalType": "uint256",
          "name": "optionId",
          "type": "uint256"
        },
        {
          "indexed": false,
          "internalType": "string",
          "name": "text",
          "type": "string"
        }
      ],
      "name": "OptionAdded",
      "type": "event"
    },
    {
      "anonymous": false,
      "inputs": [
        {
          "indexed": true,
          "internalType": "address",
          "name": "previousOwner",
          "type": "address"
        },
        {
          "indexed": true,
          "internalType": "address",
          "name": "newOwner",
          "type": "address"
        }
      ],
      "name": "OwnershipTransferred",
      "type": "event"
    },
    {
      "anonymous": false,
      "inputs": [
        {
          "indexed": true,
          "internalType": "uint256",
          "name": "quizId",
          "type": "uint256"
        },
        {
          "indexed": false,
          "internalType": "string",
          "name": "question",
          "type": "string"
        },
        {
          "indexed": true,
          "internalType": "address",
          "name": "admin",
          "type": "address"
        },
        {
          "indexed": false,
          "internalType": "uint256",
          "name": "startTime",
          "type": "uint256"
        },
        {
          "indexed": false,
          "internalType": "uint256",
          "name": "endTime",
          "type": "uint256"
        }
      ],
      "name": "QuizCreated",
      "type": "event"
    },
    {
      "anonymous": false,
      "inputs": [
        {
          "indexed": true,
          "internalType": "uint256",
          "name": "quizId",
          "type": "uint256"
        }
      ],
      "name": "QuizEnded",
      "type": "event"
    },
    {
      "anonymous": false,
      "inputs": [
        {
          "indexed": true,
          "internalType": "uint256",
          "name": "quizId",
          "type": "uint256"
        }
      ],
      "name": "ResultsRevealed",
      "type": "event"
    },
    {
      "anonymous": false,
      "inputs": [
        {
          "indexed": true,
          "internalType": "uint256",
          "name": "quizId",
          "type": "uint256"
        },
        {
          "indexed": true,
          "internalType": "uint256",
          "name": "optionId",
          "type": "uint256"
        },
        {
          "indexed": false,
          "internalType": "address",
          "name": "voter",
          "type": "address"
        }
      ],
      "name": "Voted",
      "type": "event"
    },
    {
      "inputs": [
        {
          "internalType": "uint256",
          "name": "_quizId",
          "type": "uint256"
        },
        {
          "internalType": "string",
          "name": "_text",
          "type": "string"
        }
      ],
      "name": "addOptionToQuiz",
      "outputs": [],
      "stateMutability": "nonpayable",
      "type": "function"
    },
    {
      "inputs": [
        {
          "internalType": "string",
          "name": "_question",
          "type": "string"
        },
        {
          "internalType": "address",
          "name": "_admin",
          "type": "address"
        },
        {
          "internalType": "uint256",
          "name": "_durationSeconds",
          "type": "uint256"
        }
      ],
      "name": "createQuiz",
      "outputs": [
        {
          "internalType": "uint256",
          "name": "",
          "type": "uint256"
        }
      ],
      "stateMutability": "nonpayable",
      "type": "function"
    },
    {
      "inputs": [
        {
          "internalType": "uint256",
          "name": "_quizId",
          "type": "uint256"
        }
      ],
      "name": "endQuiz",
      "outputs": [],
      "stateMutability": "nonpayable",
      "type": "function"
    },
    {
      "inputs": [
        {
          "internalType": "uint256",
          "name": "_quizId",
          "type": "uint256"
        },
        {
          "internalType": "uint256",
          "name": "_optionId",
          "type": "uint256"
        }
      ],
      "name": "getOption",
      "outputs": [
        {
          "internalType": "uint256",
          "name": "id",
          "type": "uint256"
        },
        {
          "internalType": "string",
          "name": "text",
          "type": "string"
        },
        {
          "internalType": "uint256",
          "name": "voteCount",
          "type": "uint256"
        }
      ],
      "stateMutability": "view",
      "type": "function"
    },
    {
      "inputs": [
        {
          "internalType": "uint256",
          "name": "_quizId",
          "type": "uint256"
        }
      ],
      "name": "getOptionsCount",
      "outputs": [
        {
          "internalType": "uint256",
          "name": "",
          "type": "uint256"
        }
      ],
      "stateMutability": "view",
      "type": "function"
    },
    {
      "inputs": [
        {
          "internalType": "uint256",
          "name": "_quizId",
          "type": "uint256"
        }
      ],
      "name": "getQuizEndTime",
      "outputs": [
        {
          "internalType": "uint256",
          "name": "",
          "type": "uint256"
        }
      ],
      "stateMutability": "view",
      "type": "function"
    },
    {
      "inputs": [
        {
          "internalType": "uint256",
          "name": "_quizId",
          "type": "uint256"
        }
      ],
      "name": "getTotalVotes",
      "outputs": [
        {
          "internalType": "uint256",
          "name": "total",
          "type": "uint256"
        }
      ],
      "stateMutability": "view",
      "type": "function"
    },
    {
      "inputs": [
        {
          "internalType": "uint256",
          "name": "_quizId",
          "type": "uint256"
        },
        {
          "internalType": "address",
          "name": "_voter",
          "type": "address"
        }
      ],
      "name": "getVoterChoice",
      "outputs": [
        {
          "internalType": "uint256",
          "name": "",
          "type": "uint256"
        }
      ],
      "stateMutability": "view",
      "type": "function"
    },
    {
      "inputs": [
        {
          "internalType": "uint256",
          "name": "_quizId",
          "type": "uint256"
        },
        {
          "internalType": "address",
          "name": "_voter",
          "type": "address"
        }
      ],
      "name": "hasVoted",
      "outputs": [
        {
          "internalType": "bool",
          "name": "",
          "type": "bool"
        }
      ],
      "stateMutability": "view",
      "type": "function"
    },
    {
      "inputs": [],
      "name": "owner",
      "outputs": [
        {
          "internalType": "address",
          "name": "",
          "type": "address"
        }
      ],
      "stateMutability": "view",
      "type": "function"
    },
    {
      "inputs": [],
      "name": "quizzesCount",
      "outputs": [
        {
          "internalType": "uint256",
          "name": "",
          "type": "uint256"
        }
      ],
      "stateMutability": "view",
      "type": "function"
    },
    {
      "inputs": [
        {
          "internalType": "uint256",
          "name": "_quizId",
          "type": "uint256"
        }
      ],
      "name": "revealResults",
      "outputs": [],
      "stateMutability": "nonpayable",
      "type": "function"
    },
    {
      "inputs": [
        {
          "internalType": "address",
          "name": "_newOwner",
          "type": "address"
        }
      ],
      "name": "transferOwnership",
      "outputs": [],
      "stateMutability": "nonpayable",
      "type": "function"
    },
    {
      "inputs": [
        {
          "internalType": "uint256",
          "name": "_quizId",
          "type": "uint256"
        },
        {
          "internalType": "uint256",
          "name": "_optionId",
          "type": "uint256"
        }
      ],
      "name": "voteInQuiz",
      "outputs": [],
      "stateMutability": "nonpayable",
      "type": "function"
    }
  ],
  "bytecode": "0x6080604052348015600e575f5ffd5b505f80546001600160a01b031916331790556113948061002d5f395ff3fe608060405234801561000f575f5ffd5b50600436106100e5575f3560e01c806372a31f7611610088578063b8f6255a11610063578063b8f6255a146101e8578063c68f03c8146101fb578063e0c327721461020e578063f2fde38b14610221575f5ffd5b806372a31f76146101985780638da5cb5b146101ab57806390c588e4146101d5575f5ffd5b80632ce35e11116100c35780632ce35e111461013a578063438596321461014d578063517a62571461017057806351af24fc14610183575f5ffd5b80630eac27f4146100e95780631ce309271461010f57806323ae244314610131575b5f5ffd5b6100fc6100f7366004610eee565b610234565b6040519081526020015b60405180910390f35b61012261011d366004610f18565b610313565b60405161010693929190610f66565b6100fc60025481565b6100fc610148366004610f8e565b61045c565b61016061015b366004610eee565b6104df565b6040519015158152602001610106565b6100fc61017e366004610f8e565b61053c565b610196610191366004610f18565b61057f565b005b6101966101a6366004611044565b6107c9565b5f546101bd906001600160a01b031681565b6040516001600160a01b039091168152602001610106565b6101966101e3366004610f8e565b610954565b6101966101f6366004610f8e565b610ae4565b6100fc610209366004611088565b610c0e565b6100fc61021c366004610f8e565b610dc2565b61019661022f3660046110dc565b610e05565b5f5f8311801561024657506002548311155b61026b5760405162461bcd60e51b8152600401610262906110fc565b60405180910390fd5b5f838152600160205260409020600781015460ff168061029457505f546001600160a01b031633145b806102ab575060028101546001600160a01b031633145b6102ef5760405162461bcd60e51b81526020600482015260156024820152742932b9bab63a39903737ba103932bb32b0b632b21760591b6044820152606401610262565b6001600160a01b0383165f908152600a909101602052604090205490505b92915050565b5f60605f5f8511801561032857506002548511155b6103445760405162461bcd60e51b8152600401610262906110fc565b5f8581526001602052604090208415801590610364575080600601548511155b6103a55760405162461bcd60e51b815260206004820152601260248201527124b73b30b634b21037b83a34b7b71034b21760711b6044820152606401610262565b5f85815260088201602052604090208054600282015460018301805490919082906103cf90611126565b80601f01602080910402602001604051908101604052809291908181526020018280546103fb90611126565b80156104465780601f1061041d57610100808354040283529160200191610446565b820191905f5260205f20905b81548152906001019060200180831161042957829003601f168201915b5050505050915094509450945050509250925092565b5f5f8211801561046e57506002548211155b61048a5760405162461bcd60e51b8152600401610262906110fc565b5f828152600160208190526040909120905b816006015481116104d8575f8181526008830160205260409020600201546104c49084611172565b9250806104d081611185565b91505061049c565b5050919050565b5f5f831180156104f157506002548311155b61050d5760405162461bcd60e51b8152600401610262906110fc565b505f8281526001602090815260408083206001600160a01b038516845260090190915290205460ff1692915050565b5f5f8211801561054e57506002548211155b61056a5760405162461bcd60e51b8152600401610262906110fc565b505f9081526001602052604090206006015490565b5f8211801561059057506002548211155b6105ac5760405162461bcd60e51b8152600401610262906110fc565b5f82815260016020526040902060038101544210156106055760405162461bcd60e51b815260206004820152601560248201527428bab4bd103430b9903737ba1039ba30b93a32b21760591b6044820152606401610262565b806004015442111561064b5760405162461bcd60e51b815260206004820152600f60248201526e28bab4bd103a34b6b29037bb32b91760891b6044820152606401610262565b600581015460ff161561068e5760405162461bcd60e51b815260206004820152600b60248201526a28bab4bd1032b73232b21760a91b6044820152606401610262565b335f90815260098201602052604090205460ff16156106ef5760405162461bcd60e51b815260206004820152601760248201527f596f75206861766520616c726561647920766f7465642e0000000000000000006044820152606401610262565b5f82118015610702575080600601548211155b6107435760405162461bcd60e51b815260206004820152601260248201527124b73b30b634b21037b83a34b7b71034b21760711b6044820152606401610262565b335f9081526009820160209081526040808320805460ff19166001179055600a8401825280832085905584835260088401909152812060020180549161078883611185565b9091555050604051338152829084907fd91ecafccf238642dccd41161308b3eebe62a12bc5819daf5164780c221ec95b9060200160405180910390a3505050565b815f811180156107db57506002548111155b6107f75760405162461bcd60e51b8152600401610262906110fc565b5f81815260016020526040902060028101546001600160a01b031633148061082857505f546001600160a01b031633145b6108445760405162461bcd60e51b81526004016102629061119d565b5f848152600160205260409020600581015460ff16156108a65760405162461bcd60e51b815260206004820152601f60248201527f5175697a20656e6465643b2063616e6e6f7420616464206f7074696f6e732e006044820152606401610262565b600681018054905f6108b783611185565b909155505060408051606081018252600683015480825260208083018881525f848601819052928352600886019091529290208151815591519091906001820190610902908261122a565b50604082015181600201559050508060060154857f0946129913e1d347e0148279910cacb866da59759e7914832ee7e7b69ac150018660405161094591906112e5565b60405180910390a35050505050565b5f8111801561096557506002548111155b6109815760405162461bcd60e51b8152600401610262906110fc565b5f81815260016020526040902060028101546001600160a01b03163314806109b257505f546001600160a01b031633145b610a085760405162461bcd60e51b815260206004820152602160248201527f4f6e6c792061646d696e206f72206f776e65722063616e20656e64207175697a6044820152601760f91b6064820152608401610262565b600581015460ff1615610a535760405162461bcd60e51b815260206004820152601360248201527228bab4bd1030b63932b0b23c9032b73232b21760691b6044820152606401610262565b8060040154421015610aa75760405162461bcd60e51b815260206004820152601b60248201527f43616e6e6f7420656e64206265666f726520656e642074696d652e00000000006044820152606401610262565b60058101805460ff1916600117905560405182907feb6672e75c0673414bcdabb04f668d909aa4c5593e3f1c4da648bc06fe5e6f7f905f90a25050565b805f81118015610af657506002548111155b610b125760405162461bcd60e51b8152600401610262906110fc565b5f81815260016020526040902060028101546001600160a01b0316331480610b4357505f546001600160a01b031633145b610b5f5760405162461bcd60e51b81526004016102629061119d565b5f838152600160205260409020600581015460ff1680610b83575080600401544210155b610bcf5760405162461bcd60e51b815260206004820152601e60248201527f43616e6e6f742072657665616c206265666f7265207175697a20656e642e00006044820152606401610262565b60078101805460ff1916600117905560405184907fdad003ccb029c02aa1b065bb7ecdf9df8b66c4a46dcdb93befeb2b3408a2849a905f90a250505050565b5f80546001600160a01b03163314610c385760405162461bcd60e51b8152600401610262906112f7565b6001600160a01b038316610c8e5760405162461bcd60e51b815260206004820152601d60248201527f41646d696e2063616e6e6f74206265207a65726f20616464726573732e0000006044820152606401610262565b5f8211610cd55760405162461bcd60e51b8152602060048201526015602482015274223ab930ba34b7b71036bab9ba103132901f10181760591b6044820152606401610262565b60028054905f610ce483611185565b90915550506002545f8181526001602081905260409091209182558101610d0b868261122a565b506002810180546001600160a01b0319166001600160a01b0386161790554260038201819055610d3c908490611172565b610d47906078611172565b6004820181905560058201805460ff199081169091555f60068401556007830180549091169055815460038301546040516001600160a01b038816937ff826b5bf3215582e86e92ed5a9b21a37350df8294d7ba9347c787df4912efc9892610db1928b929061133a565b60405180910390a354949350505050565b5f5f82118015610dd457506002548211155b610df05760405162461bcd60e51b8152600401610262906110fc565b505f9081526001602052604090206004015490565b5f546001600160a01b03163314610e2e5760405162461bcd60e51b8152600401610262906112f7565b6001600160a01b038116610e845760405162461bcd60e51b815260206004820152601e60248201527f4e6577206f776e657220697320746865207a65726f20616464726573732e00006044820152606401610262565b5f80546001600160a01b038381166001600160a01b0319831681178455604051919092169283917f8be0079c531659141344cd1fd0a4f28419497f9722a3daafe3b4186f6b6457e09190a35050565b80356001600160a01b0381168114610ee9575f5ffd5b919050565b5f5f60408385031215610eff575f5ffd5b82359150610f0f60208401610ed3565b90509250929050565b5f5f60408385031215610f29575f5ffd5b50508035926020909101359150565b5f81518084528060208401602086015e5f602082860101526020601f19601f83011685010191505092915050565b838152606060208201525f610f7e6060830185610f38565b9050826040830152949350505050565b5f60208284031215610f9e575f5ffd5b5035919050565b634e487b7160e01b5f52604160045260245ffd5b5f82601f830112610fc8575f5ffd5b813567ffffffffffffffff811115610fe257610fe2610fa5565b604051601f8201601f19908116603f0116810167ffffffffffffffff8111828210171561101157611011610fa5565b604052818152838201602001851015611028575f5ffd5b816020850160208301375f918101602001919091529392505050565b5f5f60408385031215611055575f5ffd5b82359150602083013567ffffffffffffffff811115611072575f5ffd5b61107e85828601610fb9565b9150509250929050565b5f5f5f6060848603121561109a575f5ffd5b833567ffffffffffffffff8111156110b0575f5ffd5b6110bc86828701610fb9565b9350506110cb60208501610ed3565b929592945050506040919091013590565b5f602082840312156110ec575f5ffd5b6110f582610ed3565b9392505050565b60208082526010908201526f24b73b30b634b21038bab4bd1034b21760811b604082015260600190565b600181811c9082168061113a57607f821691505b60208210810361115857634e487b7160e01b5f52602260045260245ffd5b50919050565b634e487b7160e01b5f52601160045260245ffd5b8082018082111561030d5761030d61115e565b5f600182016111965761119661115e565b5060010190565b60208082526021908201527f4f6e6c79207175697a2061646d696e206f72206f776e657220616c6c6f7765646040820152601760f91b606082015260800190565b601f82111561122557805f5260205f20601f840160051c810160208510156112035750805b601f840160051c820191505b81811015611222575f815560010161120f565b50505b505050565b815167ffffffffffffffff81111561124457611244610fa5565b611258816112528454611126565b846111de565b6020601f82116001811461128a575f83156112735750848201515b5f19600385901b1c1916600184901b178455611222565b5f84815260208120601f198516915b828110156112b95787850151825560209485019460019092019101611299565b50848210156112d657868401515f19600387901b60f8161c191681555b50505050600190811b01905550565b602081525f6110f56020830184610f38565b60208082526023908201527f4f6e6c79206f776e65722063616e20706572666f726d2074686973206163746960408201526237b71760e91b606082015260800190565b606081525f61134c6060830186610f38565b6020830194909452506040015291905056fea26469706673582212203562b5f65ac26e3cc24e16c44353185da80dfb36c558c00d313f4f8093a33fe164736f6c634300081c0033",
  "linkReferences": {},
  "deployedLinkReferences": {},
  "immutableReferences": {},
  "inputSourceName": "project/contracts/Voting.sol",
  "buildInfoId": "solc-0_8_28-49033f289365b0ce71d4a42a1364908da3a4b169"
}